{
  "address": "0x5FbDB2315678afecb367f032d93F642f64180aa3",
  "abi": [
    {
      "inputs": [],
      "stateMutability": "nonpayable",
      "type": "constructor"
    },
    {
      "anonymous": false,
      "inputs": [
        {
          "indexed": true,
          "internalType": "address",
          "name": "commenter",
          "type": "address"
        },
        {
          "indexed": true,
          "internalType": "uint256",
          "name": "postId",
          "type": "uint256"
        },
        {
          "indexed": false,
          "internalType": "string",
          "name": "content",
          "type": "string"
        },
        {
          "indexed": false,
          "internalType": "uint256",
          "name": "timestamp",
          "type": "uint256"
        }
      ],
      "name": "CommentAdded",
      "type": "event"
    },
    {
      "anonymous": false,
      "inputs": [
        {
          "indexed": true,
          "internalType": "address",
          "name": "author",
          "type": "address"
        },
        {
          "indexed": false,
          "internalType": "string",
          "name": "content",
          "type": "string"
        },
        {
          "indexed": false,
          "internalType": "uint256",
          "name": "timestamp",
          "type": "uint256"
        }
      ],
      "name": "PostCreated",
      "type": "event"
    },
    {
      "anonymous": false,
      "inputs": [
        {
          "indexed": true,
          "internalType": "address",
          "name": "liker",
          "type": "address"
        },
        {
          "indexed": true,
          "internalType": "uint256",
          "name": "postId",
          "type": "uint256"
        }
      ],
      "name": "PostLiked",
      "type": "event"
    },
    {
      "anonymous": false,
      "inputs": [
        {
          "indexed": true,
          "internalType": "address",
          "name": "userAddress",
          "type": "address"
        },
        {
          "indexed": false,
          "internalType": "string",
          "name": "username",
          "type": "string"
        }
      ],
      "name": "UserRegistered",
      "type": "event"
    },
    {
      "inputs": [
        {
          "internalType": "uint256",
          "name": "_postId",
          "type": "uint256"
        },
        {
          "internalType": "string",
          "name": "_content",
          "type": "string"
        }
      ],
      "name": "addComment",
      "outputs": [],
      "stateMutability": "nonpayable",
      "type": "function"
    },
    {
      "inputs": [
        {
          "internalType": "string",
          "name": "_content",
          "type": "string"
        }
      ],
      "name": "createPost",
      "outputs": [],
      "stateMutability": "nonpayable",
      "type": "function"
    },
    {
      "inputs": [
        {
          "internalType": "uint256",
          "name": "_postId",
          "type": "uint256"
        },
        {
          "internalType": "uint256",
          "name": "_commentId",
          "type": "uint256"
        }
      ],
      "name": "getComment",
      "outputs": [
        {
          "internalType": "address",
          "name": "commenter",
          "type": "address"
        },
        {
          "internalType": "string",
          "name": "content",
          "type": "string"
        },
        {
          "internalType": "uint256",
          "name": "timestamp",
          "type": "uint256"
        }
      ],
      "stateMutability": "view",
      "type": "function"
    },
    {
      "inputs": [
        {
          "internalType": "uint256",
          "name": "_postId",
          "type": "uint256"
        }
      ],
      "name": "getPost",
      "outputs": [
        {
          "internalType": "address",
          "name": "author",
          "type": "address"
        },
        {
          "internalType": "string",
          "name": "content",
          "type": "string"
        },
        {
          "internalType": "uint256",
          "name": "timestamp",
          "type": "uint256"
        },
        {
          "internalType": "uint256",
          "name": "likes",
          "type": "uint256"
        },
        {
          "internalType": "uint256",
          "name": "commentsCount",
          "type": "uint256"
        }
      ],
      "stateMutability": "view",
      "type": "function"
    },
    {
      "inputs": [],
      "name": "getPostsCount",
      "outputs": [
        {
          "internalType": "uint256",
          "name": "",
          "type": "uint256"
        }
      ],
      "stateMutability": "view",
      "type": "function"
    },
    {
      "inputs": [
        {
          "internalType": "address",
          "name": "_userAddress",
          "type": "address"
        }
      ],
      "name": "getUserByAddress",
      "outputs": [
        {
          "components": [
            {
              "internalType": "string",
              "name": "username",
              "type": "string"
            },
            {
              "internalType": "address",
              "name": "userAddress",
              "type": "address"
            },
            {
              "internalType": "bool",
              "name": "isRegistered",
              "type": "bool"
            }
          ],
          "internalType": "struct SocialMedia.User",
          "name": "",
          "type": "tuple"
        }
      ],
      "stateMutability": "view",
      "type": "function"
    },
    {
      "inputs": [
        {
          "internalType": "uint256",
          "name": "_postId",
          "type": "uint256"
        }
      ],
      "name": "likePost",
      "outputs": [],
      "stateMutability": "nonpayable",
      "type": "function"
    },
    {
      "inputs": [],
      "name": "owner",
      "outputs": [
        {
          "internalType": "address",
          "name": "",
          "type": "address"
        }
      ],
      "stateMutability": "view",
      "type": "function"
    },
    {
      "inputs": [
        {
          "internalType": "uint256",
          "name": "",
          "type": "uint256"
        },
        {
          "internalType": "uint256",
          "name": "",
          "type": "uint256"
        }
      ],
      "name": "postComments",
      "outputs": [
        {
          "internalType": "address",
          "name": "commenter",
          "type": "address"
        },
        {
          "internalType": "string",
          "name": "content",
          "type": "string"
        },
        {
          "internalType": "uint256",
          "name": "timestamp",
          "type": "uint256"
        }
      ],
      "stateMutability": "view",
      "type": "function"
    },
    {
      "inputs": [
        {
          "internalType": "uint256",
          "name": "",
          "type": "uint256"
        }
      ],
      "name": "postCommentsCount",
      "outputs": [
        {
          "internalType": "uint256",
          "name": "",
          "type": "uint256"
        }
      ],
      "stateMutability": "view",
      "type": "function"
    },
    {
      "inputs": [
        {
          "internalType": "uint256",
          "name": "",
          "type": "uint256"
        }
      ],
      "name": "posts",
      "outputs": [
        {
          "internalType": "address",
          "name": "author",
          "type": "address"
        },
        {
          "internalType": "string",
          "name": "content",
          "type": "string"
        },
        {
          "internalType": "uint256",
          "name": "timestamp",
          "type": "uint256"
        },
        {
          "internalType": "uint256",
          "name": "likes",
          "type": "uint256"
        },
        {
          "internalType": "uint256",
          "name": "commentsCount",
          "type": "uint256"
        }
      ],
      "stateMutability": "view",
      "type": "function"
    },
    {
      "inputs": [
        {
          "internalType": "string",
          "name": "_username",
          "type": "string"
        }
      ],
      "name": "registerUser",
      "outputs": [],
      "stateMutability": "nonpayable",
      "type": "function"
    },
    {
      "inputs": [
        {
          "internalType": "address",
          "name": "",
          "type": "address"
        }
      ],
      "name": "users",
      "outputs": [
        {
          "internalType": "string",
          "name": "username",
          "type": "string"
        },
        {
          "internalType": "address",
          "name": "userAddress",
          "type": "address"
        },
        {
          "internalType": "bool",
          "name": "isRegistered",
          "type": "bool"
        }
      ],
      "stateMutability": "view",
      "type": "function"
    }
  ],
  "transactionHash": "0x38117b3436b548a5f75bd5d4ed0a1b65b5cd56a2bba5b2723d93a4737c1dcf07",
  "args": [],
  "numDeployments": 1,
  "solcInputHash": "3fa6e5d1036db45e06496d2f41c09dc5",
  "bytecode": "0x608060405234801561001057600080fd5b50336000806101000a81548173ffffffffffffffffffffffffffffffffffffffff021916908373ffffffffffffffffffffffffffffffffffffffff160217905550611ebe806100606000396000f3fe608060405234801561001057600080fd5b50600436106100cf5760003560e01c8063725009d31161008c578063a87430ba11610066578063a87430ba14610244578063aa7e568314610276578063c7303c6114610292578063d82d72bf146102ae576100cf565b8063725009d3146101ec57806383624882146102085780638da5cb5b14610226576100cf565b80630b1e7f83146100d457806340731c2414610108578063488927531461013c5780635193c94c1461016e57806369c212f6146101a0578063704f1b94146101d0575b600080fd5b6100ee60048036038101906100e991906115e3565b6102de565b6040516100ff959493929190611a02565b60405180910390f35b610122600480360381019061011d91906115e3565b6103cc565b604051610133959493929190611a02565b60405180910390f35b61015660048036038101906101519190611660565b6105a6565b604051610165939291906119c4565b60405180910390f35b61018860048036038101906101839190611660565b61078a565b604051610197939291906119c4565b60405180910390f35b6101ba60048036038101906101b59190611579565b610869565b6040516101c79190611bec565b60405180910390f35b6101ea60048036038101906101e591906115a2565b610a54565b005b610206600480360381019061020191906115e3565b610c73565b005b610210610df7565b60405161021d9190611c0e565b60405180910390f35b61022e610e04565b60405161023b91906119a9565b60405180910390f35b61025e60048036038101906102599190611579565b610e28565b60405161026d93929190611a7e565b60405180910390f35b610290600480360381019061028b919061160c565b610f07565b005b6102ac60048036038101906102a791906115a2565b6111df565b005b6102c860048036038101906102c391906115e3565b6113f3565b6040516102d59190611c0e565b60405180910390f35b600481815481106102ee57600080fd5b90600052602060002090600502016000915090508060000160009054906101000a900473ffffffffffffffffffffffffffffffffffffffff169080600101805461033790611d41565b80601f016020809104026020016040519081016040528092919081815260200182805461036390611d41565b80156103b05780601f10610385576101008083540402835291602001916103b0565b820191906000526020600020905b81548152906001019060200180831161039357829003601f168201915b5050505050908060020154908060030154908060040154905085565b600060606000806000600480549050861061041c576040517f08c379a000000000000000000000000000000000000000000000000000000000815260040161041390611b6c565b60405180910390fd5b600060048781548110610458577f4e487b7100000000000000000000000000000000000000000000000000000000600052603260045260246000fd5b90600052602060002090600502016040518060a00160405290816000820160009054906101000a900473ffffffffffffffffffffffffffffffffffffffff1673ffffffffffffffffffffffffffffffffffffffff1673ffffffffffffffffffffffffffffffffffffffff1681526020016001820180546104d790611d41565b80601f016020809104026020016040519081016040528092919081815260200182805461050390611d41565b80156105505780601f1061052557610100808354040283529160200191610550565b820191906000526020600020905b81548152906001019060200180831161053357829003601f168201915b505050505081526020016002820154815260200160038201548152602001600482015481525050905080600001518160200151826040015183606001518460800151955095509550955095505091939590929450565b60006060600060048054905085106105f3576040517f08c379a00000000000000000000000000000000000000000000000000000000081526004016105ea90611b6c565b60405180910390fd5b60036000868152602001908152602001600020548410610648576040517f08c379a000000000000000000000000000000000000000000000000000000000815260040161063f90611b0c565b60405180910390fd5b60006002600087815260200190815260200160002060008681526020019081526020016000206040518060600160405290816000820160009054906101000a900473ffffffffffffffffffffffffffffffffffffffff1673ffffffffffffffffffffffffffffffffffffffff1673ffffffffffffffffffffffffffffffffffffffff1681526020016001820180546106df90611d41565b80601f016020809104026020016040519081016040528092919081815260200182805461070b90611d41565b80156107585780601f1061072d57610100808354040283529160200191610758565b820191906000526020600020905b81548152906001019060200180831161073b57829003601f168201915b505050505081526020016002820154815250509050806000015181602001518260400151935093509350509250925092565b6002602052816000526040600020602052806000526040600020600091509150508060000160009054906101000a900473ffffffffffffffffffffffffffffffffffffffff16908060010180546107e090611d41565b80601f016020809104026020016040519081016040528092919081815260200182805461080c90611d41565b80156108595780601f1061082e57610100808354040283529160200191610859565b820191906000526020600020905b81548152906001019060200180831161083c57829003601f168201915b5050505050908060020154905083565b61087161140b565b600160008373ffffffffffffffffffffffffffffffffffffffff1673ffffffffffffffffffffffffffffffffffffffff16815260200190815260200160002060010160149054906101000a900460ff16610900576040517f08c379a00000000000000000000000000000000000000000000000000000000081526004016108f790611b4c565b60405180910390fd5b600160008373ffffffffffffffffffffffffffffffffffffffff1673ffffffffffffffffffffffffffffffffffffffff16815260200190815260200160002060405180606001604052908160008201805461095a90611d41565b80601f016020809104026020016040519081016040528092919081815260200182805461098690611d41565b80156109d35780601f106109a8576101008083540402835291602001916109d3565b820191906000526020600020905b8154815290600101906020018083116109b657829003601f168201915b505050505081526020016001820160009054906101000a900473ffffffffffffffffffffffffffffffffffffffff1673ffffffffffffffffffffffffffffffffffffffff1673ffffffffffffffffffffffffffffffffffffffff1681526020016001820160149054906101000a900460ff1615151515815250509050919050565b600160003373ffffffffffffffffffffffffffffffffffffffff1673ffffffffffffffffffffffffffffffffffffffff16815260200190815260200160002060010160149054906101000a900460ff1615610ae4576040517f08c379a0000000000000000000000000000000000000000000000000000000008152600401610adb90611bcc565b60405180910390fd5b6000815111610b28576040517f08c379a0000000000000000000000000000000000000000000000000000000008152600401610b1f90611bac565b60405180910390fd5b60405180606001604052808281526020013373ffffffffffffffffffffffffffffffffffffffff16815260200160011515815250600160003373ffffffffffffffffffffffffffffffffffffffff1673ffffffffffffffffffffffffffffffffffffffff1681526020019081526020016000206000820151816000019080519060200190610bb7929190611444565b5060208201518160010160006101000a81548173ffffffffffffffffffffffffffffffffffffffff021916908373ffffffffffffffffffffffffffffffffffffffff16021790555060408201518160010160146101000a81548160ff0219169083151502179055509050503373ffffffffffffffffffffffffffffffffffffffff167f48cac28ad4dc618e15f4c2dd5e97751182f166de97b25618318b2112aa951a2f82604051610c689190611a5c565b60405180910390a250565b600160003373ffffffffffffffffffffffffffffffffffffffff1673ffffffffffffffffffffffffffffffffffffffff16815260200190815260200160002060010160149054906101000a900460ff16610d02576040517f08c379a0000000000000000000000000000000000000000000000000000000008152600401610cf990611b2c565b60405180910390fd5b6004805490508110610d49576040517f08c379a0000000000000000000000000000000000000000000000000000000008152600401610d4090611b6c565b60405180910390fd5b600060048281548110610d85577f4e487b7100000000000000000000000000000000000000000000000000000000600052603260045260246000fd5b90600052602060002090600502019050806003016000815480929190610daa90611d73565b9190505550813373ffffffffffffffffffffffffffffffffffffffff167f62500381f39eb6f48b6e6f104021ceeaca9e5354918dc17b4a15bf87c5f5d28b60405160405180910390a35050565b6000600480549050905090565b60008054906101000a900473ffffffffffffffffffffffffffffffffffffffff1681565b6001602052806000526040600020600091509050806000018054610e4b90611d41565b80601f0160208091040260200160405190810160405280929190818152602001828054610e7790611d41565b8015610ec45780601f10610e9957610100808354040283529160200191610ec4565b820191906000526020600020905b815481529060010190602001808311610ea757829003601f168201915b5050505050908060010160009054906101000a900473ffffffffffffffffffffffffffffffffffffffff16908060010160149054906101000a900460ff16905083565b600160003373ffffffffffffffffffffffffffffffffffffffff1673ffffffffffffffffffffffffffffffffffffffff16815260200190815260200160002060010160149054906101000a900460ff16610f96576040517f08c379a0000000000000000000000000000000000000000000000000000000008152600401610f8d90611b2c565b60405180910390fd5b6004805490508210610fdd576040517f08c379a0000000000000000000000000000000000000000000000000000000008152600401610fd490611b6c565b60405180910390fd5b6000815111611021576040517f08c379a000000000000000000000000000000000000000000000000000000000815260040161101890611b8c565b60405180910390fd5b60006003600084815260200190815260200160002054905060405180606001604052803373ffffffffffffffffffffffffffffffffffffffff1681526020018381526020014281525060026000858152602001908152602001600020600083815260200190815260200160002060008201518160000160006101000a81548173ffffffffffffffffffffffffffffffffffffffff021916908373ffffffffffffffffffffffffffffffffffffffff16021790555060208201518160010190805190602001906110f1929190611444565b506040820151816002015590505060036000848152602001908152602001600020600081548092919061112390611d73565b919050555060048381548110611162577f4e487b7100000000000000000000000000000000000000000000000000000000600052603260045260246000fd5b9060005260206000209060050201600401600081548092919061118490611d73565b9190505550823373ffffffffffffffffffffffffffffffffffffffff167fdb68d60a2d5659f0528e369fe9a8cfdbec13beb23609aa9a7a5c2a2d973117e484426040516111d2929190611abc565b60405180910390a3505050565b600160003373ffffffffffffffffffffffffffffffffffffffff1673ffffffffffffffffffffffffffffffffffffffff16815260200190815260200160002060010160149054906101000a900460ff1661126e576040517f08c379a000000000000000000000000000000000000000000000000000000000815260040161126590611b2c565b60405180910390fd5b60008151116112b2576040517f08c379a00000000000000000000000000000000000000000000000000000000081526004016112a990611aec565b60405180910390fd5b60046040518060a001604052803373ffffffffffffffffffffffffffffffffffffffff168152602001838152602001428152602001600081526020016000815250908060018154018082558091505060019003906000526020600020906005020160009091909190915060008201518160000160006101000a81548173ffffffffffffffffffffffffffffffffffffffff021916908373ffffffffffffffffffffffffffffffffffffffff160217905550602082015181600101908051906020019061137f929190611444565b5060408201518160020155606082015181600301556080820151816004015550503373ffffffffffffffffffffffffffffffffffffffff167fb5a2d6ecdc9bd09637c1de2e8e02011abe041770e16737ec2adfa54c8e0581c782426040516113e8929190611abc565b60405180910390a250565b60036020528060005260406000206000915090505481565b604051806060016040528060608152602001600073ffffffffffffffffffffffffffffffffffffffff1681526020016000151581525090565b82805461145090611d41565b90600052602060002090601f01602090048101928261147257600085556114b9565b82601f1061148b57805160ff19168380011785556114b9565b828001600101855582156114b9579182015b828111156114b857825182559160200191906001019061149d565b5b5090506114c691906114ca565b5090565b5b808211156114e35760008160009055506001016114cb565b5090565b60006114fa6114f584611c5a565b611c29565b90508281526020810184848401111561151257600080fd5b61151d848285611cff565b509392505050565b60008135905061153481611e5a565b92915050565b600082601f83011261154b57600080fd5b813561155b8482602086016114e7565b91505092915050565b60008135905061157381611e71565b92915050565b60006020828403121561158b57600080fd5b600061159984828501611525565b91505092915050565b6000602082840312156115b457600080fd5b600082013567ffffffffffffffff8111156115ce57600080fd5b6115da8482850161153a565b91505092915050565b6000602082840312156115f557600080fd5b600061160384828501611564565b91505092915050565b6000806040838503121561161f57600080fd5b600061162d85828601611564565b925050602083013567ffffffffffffffff81111561164a57600080fd5b6116568582860161153a565b9150509250929050565b6000806040838503121561167357600080fd5b600061168185828601611564565b925050602061169285828601611564565b9150509250929050565b6116a581611cb7565b82525050565b6116b481611cb7565b82525050565b6116c381611cc9565b82525050565b6116d281611cc9565b82525050565b60006116e382611c8a565b6116ed8185611c95565b93506116fd818560208601611d0e565b61170681611e49565b840191505092915050565b600061171c82611c8a565b6117268185611ca6565b9350611736818560208601611d0e565b61173f81611e49565b840191505092915050565b6000611757601b83611ca6565b91507f436f6e74656e742073686f756c64206e6f7420626520656d70747900000000006000830152602082019050919050565b6000611797601683611ca6565b91507f436f6d6d656e7420646f6573206e6f74206578697374000000000000000000006000830152602082019050919050565b60006117d7601683611ca6565b91507f55736572206973206e6f742072656769737465726564000000000000000000006000830152602082019050919050565b6000611817600e83611ca6565b91507f55736572206e6f7420666f756e640000000000000000000000000000000000006000830152602082019050919050565b6000611857601383611ca6565b91507f506f737420646f6573206e6f74206578697374000000000000000000000000006000830152602082019050919050565b6000611897601b83611ca6565b91507f436f6d6d656e742073686f756c64206e6f7420626520656d70747900000000006000830152602082019050919050565b60006118d7601c83611ca6565b91507f557365726e616d652073686f756c64206e6f7420626520656d707479000000006000830152602082019050919050565b6000611917601a83611ca6565b91507f5573657220697320616c726561647920726567697374657265640000000000006000830152602082019050919050565b6000606083016000830151848203600086015261196782826116d8565b915050602083015161197c602086018261169c565b50604083015161198f60408601826116ba565b508091505092915050565b6119a381611cf5565b82525050565b60006020820190506119be60008301846116ab565b92915050565b60006060820190506119d960008301866116ab565b81810360208301526119eb8185611711565b90506119fa604083018461199a565b949350505050565b600060a082019050611a1760008301886116ab565b8181036020830152611a298187611711565b9050611a38604083018661199a565b611a45606083018561199a565b611a52608083018461199a565b9695505050505050565b60006020820190508181036000830152611a768184611711565b905092915050565b60006060820190508181036000830152611a988186611711565b9050611aa760208301856116ab565b611ab460408301846116c9565b949350505050565b60006040820190508181036000830152611ad68185611711565b9050611ae5602083018461199a565b9392505050565b60006020820190508181036000830152611b058161174a565b9050919050565b60006020820190508181036000830152611b258161178a565b9050919050565b60006020820190508181036000830152611b45816117ca565b9050919050565b60006020820190508181036000830152611b658161180a565b9050919050565b60006020820190508181036000830152611b858161184a565b9050919050565b60006020820190508181036000830152611ba58161188a565b9050919050565b60006020820190508181036000830152611bc5816118ca565b9050919050565b60006020820190508181036000830152611be58161190a565b9050919050565b60006020820190508181036000830152611c06818461194a565b905092915050565b6000602082019050611c23600083018461199a565b92915050565b6000604051905081810181811067ffffffffffffffff82111715611c5057611c4f611e1a565b5b8060405250919050565b600067ffffffffffffffff821115611c7557611c74611e1a565b5b601f19601f8301169050602081019050919050565b600081519050919050565b600082825260208201905092915050565b600082825260208201905092915050565b6000611cc282611cd5565b9050919050565b60008115159050919050565b600073ffffffffffffffffffffffffffffffffffffffff82169050919050565b6000819050919050565b82818337600083830152505050565b60005b83811015611d2c578082015181840152602081019050611d11565b83811115611d3b576000848401525b50505050565b60006002820490506001821680611d5957607f821691505b60208210811415611d6d57611d6c611deb565b5b50919050565b6000611d7e82611cf5565b91507fffffffffffffffffffffffffffffffffffffffffffffffffffffffffffffffff821415611db157611db0611dbc565b5b600182019050919050565b7f4e487b7100000000000000000000000000000000000000000000000000000000600052601160045260246000fd5b7f4e487b7100000000000000000000000000000000000000000000000000000000600052602260045260246000fd5b7f4e487b7100000000000000000000000000000000000000000000000000000000600052604160045260246000fd5b6000601f19601f8301169050919050565b611e6381611cb7565b8114611e6e57600080fd5b50565b611e7a81611cf5565b8114611e8557600080fd5b5056fea264697066735822122066c8eb6975815c46b60588141e90d0f4950089b5455815275b185af9323988e164736f6c63430008000033",
  "devdoc": {
    "kind": "dev",
    "methods": {},
    "version": 1
  },
  "userdoc": {
    "kind": "user",
    "methods": {},
    "version": 1
  },
  "storageLayout": {
    "storage": [
      {
        "astId": 3,
        "contract": "contracts/Social.sol:SocialMedia",
        "label": "owner",
        "offset": 0,
        "slot": "0",
        "type": "t_address"
      },
      {
        "astId": 15,
        "contract": "contracts/Social.sol:SocialMedia",
        "label": "users",
        "offset": 0,
        "slot": "1",
        "type": "t_mapping(t_address,t_struct(User)10_storage)"
      },
      {
        "astId": 40,
        "contract": "contracts/Social.sol:SocialMedia",
        "label": "postComments",
        "offset": 0,
        "slot": "2",
        "type": "t_mapping(t_uint256,t_mapping(t_uint256,t_struct(Comment)33_storage))"
      },
      {
        "astId": 44,
        "contract": "contracts/Social.sol:SocialMedia",
        "label": "postCommentsCount",
        "offset": 0,
        "slot": "3",
        "type": "t_mapping(t_uint256,t_uint256)"
      },
      {
        "astId": 48,
        "contract": "contracts/Social.sol:SocialMedia",
        "label": "posts",
        "offset": 0,
        "slot": "4",
        "type": "t_array(t_struct(Post)26_storage)dyn_storage"
      }
    ],
    "types": {
      "t_address": {
        "encoding": "inplace",
        "label": "address",
        "numberOfBytes": "20"
      },
      "t_array(t_struct(Post)26_storage)dyn_storage": {
        "base": "t_struct(Post)26_storage",
        "encoding": "dynamic_array",
        "label": "struct SocialMedia.Post[]",
        "numberOfBytes": "32"
      },
      "t_bool": {
        "encoding": "inplace",
        "label": "bool",
        "numberOfBytes": "1"
      },
      "t_mapping(t_address,t_struct(User)10_storage)": {
        "encoding": "mapping",
        "key": "t_address",
        "label": "mapping(address => struct SocialMedia.User)",
        "numberOfBytes": "32",
        "value": "t_struct(User)10_storage"
      },
      "t_mapping(t_uint256,t_mapping(t_uint256,t_struct(Comment)33_storage))": {
        "encoding": "mapping",
        "key": "t_uint256",
        "label": "mapping(uint256 => mapping(uint256 => struct SocialMedia.Comment))",
        "numberOfBytes": "32",
        "value": "t_mapping(t_uint256,t_struct(Comment)33_storage)"
      },
      "t_mapping(t_uint256,t_struct(Comment)33_storage)": {
        "encoding": "mapping",
        "key": "t_uint256",
        "label": "mapping(uint256 => struct SocialMedia.Comment)",
        "numberOfBytes": "32",
        "value": "t_struct(Comment)33_storage"
      },
      "t_mapping(t_uint256,t_uint256)": {
        "encoding": "mapping",
        "key": "t_uint256",
        "label": "mapping(uint256 => uint256)",
        "numberOfBytes": "32",
        "value": "t_uint256"
      },
      "t_string_storage": {
        "encoding": "bytes",
        "label": "string",
        "numberOfBytes": "32"
      },
      "t_struct(Comment)33_storage": {
        "encoding": "inplace",
        "label": "struct SocialMedia.Comment",
        "members": [
          {
            "astId": 28,
            "contract": "contracts/Social.sol:SocialMedia",
            "label": "commenter",
            "offset": 0,
            "slot": "0",
            "type": "t_address"
          },
          {
            "astId": 30,
            "contract": "contracts/Social.sol:SocialMedia",
            "label": "content",
            "offset": 0,
            "slot": "1",
            "type": "t_string_storage"
          },
          {
            "astId": 32,
            "contract": "contracts/Social.sol:SocialMedia",
            "label": "timestamp",
            "offset": 0,
            "slot": "2",
            "type": "t_uint256"
          }
        ],
        "numberOfBytes": "96"
      },
      "t_struct(Post)26_storage": {
        "encoding": "inplace",
        "label": "struct SocialMedia.Post",
        "members": [
          {
            "astId": 17,
            "contract": "contracts/Social.sol:SocialMedia",
            "label": "author",
            "offset": 0,
            "slot": "0",
            "type": "t_address"
          },
          {
            "astId": 19,
            "contract": "contracts/Social.sol:SocialMedia",
            "label": "content",
            "offset": 0,
            "slot": "1",
            "type": "t_string_storage"
          },
          {
            "astId": 21,
            "contract": "contracts/Social.sol:SocialMedia",
            "label": "timestamp",
            "offset": 0,
            "slot": "2",
            "type": "t_uint256"
          },
          {
            "astId": 23,
            "contract": "contracts/Social.sol:SocialMedia",
            "label": "likes",
            "offset": 0,
            "slot": "3",
            "type": "t_uint256"
          },
          {
            "astId": 25,
            "contract": "contracts/Social.sol:SocialMedia",
            "label": "commentsCount",
            "offset": 0,
            "slot": "4",
            "type": "t_uint256"
          }
        ],
        "numberOfBytes": "160"
      },
      "t_struct(User)10_storage": {
        "encoding": "inplace",
        "label": "struct SocialMedia.User",
        "members": [
          {
            "astId": 5,
            "contract": "contracts/Social.sol:SocialMedia",
            "label": "username",
            "offset": 0,
            "slot": "0",
            "type": "t_string_storage"
          },
          {
            "astId": 7,
            "contract": "contracts/Social.sol:SocialMedia",
            "label": "userAddress",
            "offset": 0,
            "slot": "1",
            "type": "t_address"
          },
          {
            "astId": 9,
            "contract": "contracts/Social.sol:SocialMedia",
            "label": "isRegistered",
            "offset": 20,
            "slot": "1",
            "type": "t_bool"
          }
        ],
        "numberOfBytes": "64"
      },
      "t_uint256": {
        "encoding": "inplace",
        "label": "uint256",
        "numberOfBytes": "32"
      }
    }
  }
}