{
  "address": "0x4FA236944CA82c94F872AA175512E86dB6dA84Ac",
  "abi": [
    {
      "inputs": [],
      "stateMutability": "nonpayable",
      "type": "constructor"
    },
    {
      "anonymous": false,
      "inputs": [
        {
          "indexed": true,
          "internalType": "address",
          "name": "commenter",
          "type": "address"
        },
        {
          "indexed": true,
          "internalType": "uint256",
          "name": "postId",
          "type": "uint256"
        },
        {
          "indexed": false,
          "internalType": "string",
          "name": "content",
          "type": "string"
        },
        {
          "indexed": false,
          "internalType": "uint256",
          "name": "timestamp",
          "type": "uint256"
        }
      ],
      "name": "CommentAdded",
      "type": "event"
    },
    {
      "anonymous": false,
      "inputs": [
        {
          "indexed": true,
          "internalType": "address",
          "name": "author",
          "type": "address"
        },
        {
          "indexed": false,
          "internalType": "string",
          "name": "content",
          "type": "string"
        },
        {
          "indexed": false,
          "internalType": "uint256",
          "name": "timestamp",
          "type": "uint256"
        }
      ],
      "name": "PostCreated",
      "type": "event"
    },
    {
      "anonymous": false,
      "inputs": [
        {
          "indexed": true,
          "internalType": "address",
          "name": "liker",
          "type": "address"
        },
        {
          "indexed": true,
          "internalType": "uint256",
          "name": "postId",
          "type": "uint256"
        }
      ],
      "name": "PostLiked",
      "type": "event"
    },
    {
      "anonymous": false,
      "inputs": [
        {
          "indexed": true,
          "internalType": "address",
          "name": "userAddress",
          "type": "address"
        },
        {
          "indexed": false,
          "internalType": "string",
          "name": "username",
          "type": "string"
        }
      ],
      "name": "UserRegistered",
      "type": "event"
    },
    {
      "inputs": [
        {
          "internalType": "uint256",
          "name": "_postId",
          "type": "uint256"
        },
        {
          "internalType": "string",
          "name": "_content",
          "type": "string"
        }
      ],
      "name": "addComment",
      "outputs": [],
      "stateMutability": "nonpayable",
      "type": "function"
    },
    {
      "inputs": [
        {
          "internalType": "string",
          "name": "_content",
          "type": "string"
        }
      ],
      "name": "createPost",
      "outputs": [],
      "stateMutability": "nonpayable",
      "type": "function"
    },
    {
      "inputs": [
        {
          "internalType": "uint256",
          "name": "_postId",
          "type": "uint256"
        },
        {
          "internalType": "uint256",
          "name": "_commentId",
          "type": "uint256"
        }
      ],
      "name": "getComment",
      "outputs": [
        {
          "internalType": "address",
          "name": "commenter",
          "type": "address"
        },
        {
          "internalType": "string",
          "name": "content",
          "type": "string"
        },
        {
          "internalType": "uint256",
          "name": "timestamp",
          "type": "uint256"
        }
      ],
      "stateMutability": "view",
      "type": "function"
    },
    {
      "inputs": [
        {
          "internalType": "uint256",
          "name": "_postId",
          "type": "uint256"
        }
      ],
      "name": "getPost",
      "outputs": [
        {
          "internalType": "address",
          "name": "author",
          "type": "address"
        },
        {
          "internalType": "string",
          "name": "content",
          "type": "string"
        },
        {
          "internalType": "uint256",
          "name": "timestamp",
          "type": "uint256"
        },
        {
          "internalType": "uint256",
          "name": "likes",
          "type": "uint256"
        },
        {
          "internalType": "uint256",
          "name": "commentsCount",
          "type": "uint256"
        }
      ],
      "stateMutability": "view",
      "type": "function"
    },
    {
      "inputs": [],
      "name": "getPostsCount",
      "outputs": [
        {
          "internalType": "uint256",
          "name": "",
          "type": "uint256"
        }
      ],
      "stateMutability": "view",
      "type": "function"
    },
    {
      "inputs": [
        {
          "internalType": "uint256",
          "name": "_postId",
          "type": "uint256"
        }
      ],
      "name": "likePost",
      "outputs": [],
      "stateMutability": "nonpayable",
      "type": "function"
    },
    {
      "inputs": [],
      "name": "owner",
      "outputs": [
        {
          "internalType": "address",
          "name": "",
          "type": "address"
        }
      ],
      "stateMutability": "view",
      "type": "function"
    },
    {
      "inputs": [
        {
          "internalType": "uint256",
          "name": "",
          "type": "uint256"
        },
        {
          "internalType": "uint256",
          "name": "",
          "type": "uint256"
        }
      ],
      "name": "postComments",
      "outputs": [
        {
          "internalType": "address",
          "name": "commenter",
          "type": "address"
        },
        {
          "internalType": "string",
          "name": "content",
          "type": "string"
        },
        {
          "internalType": "uint256",
          "name": "timestamp",
          "type": "uint256"
        }
      ],
      "stateMutability": "view",
      "type": "function"
    },
    {
      "inputs": [
        {
          "internalType": "uint256",
          "name": "",
          "type": "uint256"
        }
      ],
      "name": "postCommentsCount",
      "outputs": [
        {
          "internalType": "uint256",
          "name": "",
          "type": "uint256"
        }
      ],
      "stateMutability": "view",
      "type": "function"
    },
    {
      "inputs": [
        {
          "internalType": "uint256",
          "name": "",
          "type": "uint256"
        }
      ],
      "name": "posts",
      "outputs": [
        {
          "internalType": "address",
          "name": "author",
          "type": "address"
        },
        {
          "internalType": "string",
          "name": "content",
          "type": "string"
        },
        {
          "internalType": "uint256",
          "name": "timestamp",
          "type": "uint256"
        },
        {
          "internalType": "uint256",
          "name": "likes",
          "type": "uint256"
        },
        {
          "internalType": "uint256",
          "name": "commentsCount",
          "type": "uint256"
        }
      ],
      "stateMutability": "view",
      "type": "function"
    },
    {
      "inputs": [
        {
          "internalType": "string",
          "name": "_username",
          "type": "string"
        }
      ],
      "name": "registerUser",
      "outputs": [],
      "stateMutability": "nonpayable",
      "type": "function"
    },
    {
      "inputs": [
        {
          "internalType": "address",
          "name": "",
          "type": "address"
        }
      ],
      "name": "users",
      "outputs": [
        {
          "internalType": "string",
          "name": "username",
          "type": "string"
        },
        {
          "internalType": "address",
          "name": "userAddress",
          "type": "address"
        },
        {
          "internalType": "bool",
          "name": "isRegistered",
          "type": "bool"
        }
      ],
      "stateMutability": "view",
      "type": "function"
    }
  ],
  "transactionHash": "0x9a89f51b4ac01f78d5075ba5d62625e12025b0bc34c39afc04de9b02b10585ce",
  "args": [],
  "numDeployments": 1,
  "solcInputHash": "df9a87f1757f9eadec7c5bd77b2f0269",
  "bytecode": "0x608060405234801561001057600080fd5b50336000806101000a81548173ffffffffffffffffffffffffffffffffffffffff021916908373ffffffffffffffffffffffffffffffffffffffff160217905550611b15806100606000396000f3fe608060405234801561001057600080fd5b50600436106100b45760003560e01c8063836248821161007157806383624882146101bd5780638da5cb5b146101db578063a87430ba146101f9578063aa7e56831461022b578063c7303c6114610247578063d82d72bf14610263576100b4565b80630b1e7f83146100b957806340731c24146100ed57806348892753146101215780635193c94c14610153578063704f1b9414610185578063725009d3146101a1575b600080fd5b6100d360048036038101906100ce9190611374565b610293565b6040516100e49594939291906116ac565b60405180910390f35b61010760048036038101906101029190611374565b610381565b6040516101189594939291906116ac565b60405180910390f35b61013b600480360381019061013691906113f1565b61055b565b60405161014a9392919061166e565b60405180910390f35b61016d600480360381019061016891906113f1565b61073f565b60405161017c9392919061166e565b60405180910390f35b61019f600480360381019061019a9190611333565b61081e565b005b6101bb60048036038101906101b69190611374565b610a3d565b005b6101c5610bc1565b6040516101d29190611876565b60405180910390f35b6101e3610bce565b6040516101f09190611653565b60405180910390f35b610213600480360381019061020e919061130a565b610bf2565b60405161022293929190611728565b60405180910390f35b6102456004803603810190610240919061139d565b610cd1565b005b610261600480360381019061025c9190611333565b610fa9565b005b61027d60048036038101906102789190611374565b6111bd565b60405161028a9190611876565b60405180910390f35b600481815481106102a357600080fd5b90600052602060002090600502016000915090508060000160009054906101000a900473ffffffffffffffffffffffffffffffffffffffff16908060010180546102ec90611998565b80601f016020809104026020016040519081016040528092919081815260200182805461031890611998565b80156103655780601f1061033a57610100808354040283529160200191610365565b820191906000526020600020905b81548152906001019060200180831161034857829003601f168201915b5050505050908060020154908060030154908060040154905085565b60006060600080600060048054905086106103d1576040517f08c379a00000000000000000000000000000000000000000000000000000000081526004016103c8906117f6565b60405180910390fd5b60006004878154811061040d577f4e487b7100000000000000000000000000000000000000000000000000000000600052603260045260246000fd5b90600052602060002090600502016040518060a00160405290816000820160009054906101000a900473ffffffffffffffffffffffffffffffffffffffff1673ffffffffffffffffffffffffffffffffffffffff1673ffffffffffffffffffffffffffffffffffffffff16815260200160018201805461048c90611998565b80601f01602080910402602001604051908101604052809291908181526020018280546104b890611998565b80156105055780601f106104da57610100808354040283529160200191610505565b820191906000526020600020905b8154815290600101906020018083116104e857829003601f168201915b505050505081526020016002820154815260200160038201548152602001600482015481525050905080600001518160200151826040015183606001518460800151955095509550955095505091939590929450565b60006060600060048054905085106105a8576040517f08c379a000000000000000000000000000000000000000000000000000000000815260040161059f906117f6565b60405180910390fd5b600360008681526020019081526020016000205484106105fd576040517f08c379a00000000000000000000000000000000000000000000000000000000081526004016105f4906117b6565b60405180910390fd5b60006002600087815260200190815260200160002060008681526020019081526020016000206040518060600160405290816000820160009054906101000a900473ffffffffffffffffffffffffffffffffffffffff1673ffffffffffffffffffffffffffffffffffffffff1673ffffffffffffffffffffffffffffffffffffffff16815260200160018201805461069490611998565b80601f01602080910402602001604051908101604052809291908181526020018280546106c090611998565b801561070d5780601f106106e25761010080835404028352916020019161070d565b820191906000526020600020905b8154815290600101906020018083116106f057829003601f168201915b505050505081526020016002820154815250509050806000015181602001518260400151935093509350509250925092565b6002602052816000526040600020602052806000526040600020600091509150508060000160009054906101000a900473ffffffffffffffffffffffffffffffffffffffff169080600101805461079590611998565b80601f01602080910402602001604051908101604052809291908181526020018280546107c190611998565b801561080e5780601f106107e35761010080835404028352916020019161080e565b820191906000526020600020905b8154815290600101906020018083116107f157829003601f168201915b5050505050908060020154905083565b600160003373ffffffffffffffffffffffffffffffffffffffff1673ffffffffffffffffffffffffffffffffffffffff16815260200190815260200160002060010160149054906101000a900460ff16156108ae576040517f08c379a00000000000000000000000000000000000000000000000000000000081526004016108a590611856565b60405180910390fd5b60008151116108f2576040517f08c379a00000000000000000000000000000000000000000000000000000000081526004016108e990611836565b60405180910390fd5b60405180606001604052808281526020013373ffffffffffffffffffffffffffffffffffffffff16815260200160011515815250600160003373ffffffffffffffffffffffffffffffffffffffff1673ffffffffffffffffffffffffffffffffffffffff16815260200190815260200160002060008201518160000190805190602001906109819291906111d5565b5060208201518160010160006101000a81548173ffffffffffffffffffffffffffffffffffffffff021916908373ffffffffffffffffffffffffffffffffffffffff16021790555060408201518160010160146101000a81548160ff0219169083151502179055509050503373ffffffffffffffffffffffffffffffffffffffff167f48cac28ad4dc618e15f4c2dd5e97751182f166de97b25618318b2112aa951a2f82604051610a329190611706565b60405180910390a250565b600160003373ffffffffffffffffffffffffffffffffffffffff1673ffffffffffffffffffffffffffffffffffffffff16815260200190815260200160002060010160149054906101000a900460ff16610acc576040517f08c379a0000000000000000000000000000000000000000000000000000000008152600401610ac3906117d6565b60405180910390fd5b6004805490508110610b13576040517f08c379a0000000000000000000000000000000000000000000000000000000008152600401610b0a906117f6565b60405180910390fd5b600060048281548110610b4f577f4e487b7100000000000000000000000000000000000000000000000000000000600052603260045260246000fd5b90600052602060002090600502019050806003016000815480929190610b74906119ca565b9190505550813373ffffffffffffffffffffffffffffffffffffffff167f62500381f39eb6f48b6e6f104021ceeaca9e5354918dc17b4a15bf87c5f5d28b60405160405180910390a35050565b6000600480549050905090565b60008054906101000a900473ffffffffffffffffffffffffffffffffffffffff1681565b6001602052806000526040600020600091509050806000018054610c1590611998565b80601f0160208091040260200160405190810160405280929190818152602001828054610c4190611998565b8015610c8e5780601f10610c6357610100808354040283529160200191610c8e565b820191906000526020600020905b815481529060010190602001808311610c7157829003601f168201915b5050505050908060010160009054906101000a900473ffffffffffffffffffffffffffffffffffffffff16908060010160149054906101000a900460ff16905083565b600160003373ffffffffffffffffffffffffffffffffffffffff1673ffffffffffffffffffffffffffffffffffffffff16815260200190815260200160002060010160149054906101000a900460ff16610d60576040517f08c379a0000000000000000000000000000000000000000000000000000000008152600401610d57906117d6565b60405180910390fd5b6004805490508210610da7576040517f08c379a0000000000000000000000000000000000000000000000000000000008152600401610d9e906117f6565b60405180910390fd5b6000815111610deb576040517f08c379a0000000000000000000000000000000000000000000000000000000008152600401610de290611816565b60405180910390fd5b60006003600084815260200190815260200160002054905060405180606001604052803373ffffffffffffffffffffffffffffffffffffffff1681526020018381526020014281525060026000858152602001908152602001600020600083815260200190815260200160002060008201518160000160006101000a81548173ffffffffffffffffffffffffffffffffffffffff021916908373ffffffffffffffffffffffffffffffffffffffff1602179055506020820151816001019080519060200190610ebb9291906111d5565b5060408201518160020155905050600360008481526020019081526020016000206000815480929190610eed906119ca565b919050555060048381548110610f2c577f4e487b7100000000000000000000000000000000000000000000000000000000600052603260045260246000fd5b90600052602060002090600502016004016000815480929190610f4e906119ca565b9190505550823373ffffffffffffffffffffffffffffffffffffffff167fdb68d60a2d5659f0528e369fe9a8cfdbec13beb23609aa9a7a5c2a2d973117e48442604051610f9c929190611766565b60405180910390a3505050565b600160003373ffffffffffffffffffffffffffffffffffffffff1673ffffffffffffffffffffffffffffffffffffffff16815260200190815260200160002060010160149054906101000a900460ff16611038576040517f08c379a000000000000000000000000000000000000000000000000000000000815260040161102f906117d6565b60405180910390fd5b600081511161107c576040517f08c379a000000000000000000000000000000000000000000000000000000000815260040161107390611796565b60405180910390fd5b60046040518060a001604052803373ffffffffffffffffffffffffffffffffffffffff168152602001838152602001428152602001600081526020016000815250908060018154018082558091505060019003906000526020600020906005020160009091909190915060008201518160000160006101000a81548173ffffffffffffffffffffffffffffffffffffffff021916908373ffffffffffffffffffffffffffffffffffffffff16021790555060208201518160010190805190602001906111499291906111d5565b5060408201518160020155606082015181600301556080820151816004015550503373ffffffffffffffffffffffffffffffffffffffff167fb5a2d6ecdc9bd09637c1de2e8e02011abe041770e16737ec2adfa54c8e0581c782426040516111b2929190611766565b60405180910390a250565b60036020528060005260406000206000915090505481565b8280546111e190611998565b90600052602060002090601f016020900481019282611203576000855561124a565b82601f1061121c57805160ff191683800117855561124a565b8280016001018555821561124a579182015b8281111561124957825182559160200191906001019061122e565b5b509050611257919061125b565b5090565b5b8082111561127457600081600090555060010161125c565b5090565b600061128b611286846118c2565b611891565b9050828152602081018484840111156112a357600080fd5b6112ae848285611956565b509392505050565b6000813590506112c581611ab1565b92915050565b600082601f8301126112dc57600080fd5b81356112ec848260208601611278565b91505092915050565b60008135905061130481611ac8565b92915050565b60006020828403121561131c57600080fd5b600061132a848285016112b6565b91505092915050565b60006020828403121561134557600080fd5b600082013567ffffffffffffffff81111561135f57600080fd5b61136b848285016112cb565b91505092915050565b60006020828403121561138657600080fd5b6000611394848285016112f5565b91505092915050565b600080604083850312156113b057600080fd5b60006113be858286016112f5565b925050602083013567ffffffffffffffff8111156113db57600080fd5b6113e7858286016112cb565b9150509250929050565b6000806040838503121561140457600080fd5b6000611412858286016112f5565b9250506020611423858286016112f5565b9150509250929050565b6114368161190e565b82525050565b61144581611920565b82525050565b6000611456826118f2565b61146081856118fd565b9350611470818560208601611965565b61147981611aa0565b840191505092915050565b6000611491601b836118fd565b91507f436f6e74656e742073686f756c64206e6f7420626520656d70747900000000006000830152602082019050919050565b60006114d16016836118fd565b91507f436f6d6d656e7420646f6573206e6f74206578697374000000000000000000006000830152602082019050919050565b60006115116016836118fd565b91507f55736572206973206e6f742072656769737465726564000000000000000000006000830152602082019050919050565b60006115516013836118fd565b91507f506f737420646f6573206e6f74206578697374000000000000000000000000006000830152602082019050919050565b6000611591601b836118fd565b91507f436f6d6d656e742073686f756c64206e6f7420626520656d70747900000000006000830152602082019050919050565b60006115d1601c836118fd565b91507f557365726e616d652073686f756c64206e6f7420626520656d707479000000006000830152602082019050919050565b6000611611601a836118fd565b91507f5573657220697320616c726561647920726567697374657265640000000000006000830152602082019050919050565b61164d8161194c565b82525050565b6000602082019050611668600083018461142d565b92915050565b6000606082019050611683600083018661142d565b8181036020830152611695818561144b565b90506116a46040830184611644565b949350505050565b600060a0820190506116c1600083018861142d565b81810360208301526116d3818761144b565b90506116e26040830186611644565b6116ef6060830185611644565b6116fc6080830184611644565b9695505050505050565b60006020820190508181036000830152611720818461144b565b905092915050565b60006060820190508181036000830152611742818661144b565b9050611751602083018561142d565b61175e604083018461143c565b949350505050565b60006040820190508181036000830152611780818561144b565b905061178f6020830184611644565b9392505050565b600060208201905081810360008301526117af81611484565b9050919050565b600060208201905081810360008301526117cf816114c4565b9050919050565b600060208201905081810360008301526117ef81611504565b9050919050565b6000602082019050818103600083015261180f81611544565b9050919050565b6000602082019050818103600083015261182f81611584565b9050919050565b6000602082019050818103600083015261184f816115c4565b9050919050565b6000602082019050818103600083015261186f81611604565b9050919050565b600060208201905061188b6000830184611644565b92915050565b6000604051905081810181811067ffffffffffffffff821117156118b8576118b7611a71565b5b8060405250919050565b600067ffffffffffffffff8211156118dd576118dc611a71565b5b601f19601f8301169050602081019050919050565b600081519050919050565b600082825260208201905092915050565b60006119198261192c565b9050919050565b60008115159050919050565b600073ffffffffffffffffffffffffffffffffffffffff82169050919050565b6000819050919050565b82818337600083830152505050565b60005b83811015611983578082015181840152602081019050611968565b83811115611992576000848401525b50505050565b600060028204905060018216806119b057607f821691505b602082108114156119c4576119c3611a42565b5b50919050565b60006119d58261194c565b91507fffffffffffffffffffffffffffffffffffffffffffffffffffffffffffffffff821415611a0857611a07611a13565b5b600182019050919050565b7f4e487b7100000000000000000000000000000000000000000000000000000000600052601160045260246000fd5b7f4e487b7100000000000000000000000000000000000000000000000000000000600052602260045260246000fd5b7f4e487b7100000000000000000000000000000000000000000000000000000000600052604160045260246000fd5b6000601f19601f8301169050919050565b611aba8161190e565b8114611ac557600080fd5b50565b611ad18161194c565b8114611adc57600080fd5b5056fea26469706673582212203cca2e0180635d7c015d9cdb1f03915a2b4f2a0a4dbb5795a0d9b3a9a11341ac64736f6c63430008000033",
  "devdoc": {
    "kind": "dev",
    "methods": {},
    "version": 1
  },
  "userdoc": {
    "kind": "user",
    "methods": {},
    "version": 1
  },
  "storageLayout": {
    "storage": [
      {
        "astId": 3,
        "contract": "contracts/Social.sol:SocialMedia",
        "label": "owner",
        "offset": 0,
        "slot": "0",
        "type": "t_address"
      },
      {
        "astId": 15,
        "contract": "contracts/Social.sol:SocialMedia",
        "label": "users",
        "offset": 0,
        "slot": "1",
        "type": "t_mapping(t_address,t_struct(User)10_storage)"
      },
      {
        "astId": 40,
        "contract": "contracts/Social.sol:SocialMedia",
        "label": "postComments",
        "offset": 0,
        "slot": "2",
        "type": "t_mapping(t_uint256,t_mapping(t_uint256,t_struct(Comment)33_storage))"
      },
      {
        "astId": 44,
        "contract": "contracts/Social.sol:SocialMedia",
        "label": "postCommentsCount",
        "offset": 0,
        "slot": "3",
        "type": "t_mapping(t_uint256,t_uint256)"
      },
      {
        "astId": 48,
        "contract": "contracts/Social.sol:SocialMedia",
        "label": "posts",
        "offset": 0,
        "slot": "4",
        "type": "t_array(t_struct(Post)26_storage)dyn_storage"
      }
    ],
    "types": {
      "t_address": {
        "encoding": "inplace",
        "label": "address",
        "numberOfBytes": "20"
      },
      "t_array(t_struct(Post)26_storage)dyn_storage": {
        "base": "t_struct(Post)26_storage",
        "encoding": "dynamic_array",
        "label": "struct SocialMedia.Post[]",
        "numberOfBytes": "32"
      },
      "t_bool": {
        "encoding": "inplace",
        "label": "bool",
        "numberOfBytes": "1"
      },
      "t_mapping(t_address,t_struct(User)10_storage)": {
        "encoding": "mapping",
        "key": "t_address",
        "label": "mapping(address => struct SocialMedia.User)",
        "numberOfBytes": "32",
        "value": "t_struct(User)10_storage"
      },
      "t_mapping(t_uint256,t_mapping(t_uint256,t_struct(Comment)33_storage))": {
        "encoding": "mapping",
        "key": "t_uint256",
        "label": "mapping(uint256 => mapping(uint256 => struct SocialMedia.Comment))",
        "numberOfBytes": "32",
        "value": "t_mapping(t_uint256,t_struct(Comment)33_storage)"
      },
      "t_mapping(t_uint256,t_struct(Comment)33_storage)": {
        "encoding": "mapping",
        "key": "t_uint256",
        "label": "mapping(uint256 => struct SocialMedia.Comment)",
        "numberOfBytes": "32",
        "value": "t_struct(Comment)33_storage"
      },
      "t_mapping(t_uint256,t_uint256)": {
        "encoding": "mapping",
        "key": "t_uint256",
        "label": "mapping(uint256 => uint256)",
        "numberOfBytes": "32",
        "value": "t_uint256"
      },
      "t_string_storage": {
        "encoding": "bytes",
        "label": "string",
        "numberOfBytes": "32"
      },
      "t_struct(Comment)33_storage": {
        "encoding": "inplace",
        "label": "struct SocialMedia.Comment",
        "members": [
          {
            "astId": 28,
            "contract": "contracts/Social.sol:SocialMedia",
            "label": "commenter",
            "offset": 0,
            "slot": "0",
            "type": "t_address"
          },
          {
            "astId": 30,
            "contract": "contracts/Social.sol:SocialMedia",
            "label": "content",
            "offset": 0,
            "slot": "1",
            "type": "t_string_storage"
          },
          {
            "astId": 32,
            "contract": "contracts/Social.sol:SocialMedia",
            "label": "timestamp",
            "offset": 0,
            "slot": "2",
            "type": "t_uint256"
          }
        ],
        "numberOfBytes": "96"
      },
      "t_struct(Post)26_storage": {
        "encoding": "inplace",
        "label": "struct SocialMedia.Post",
        "members": [
          {
            "astId": 17,
            "contract": "contracts/Social.sol:SocialMedia",
            "label": "author",
            "offset": 0,
            "slot": "0",
            "type": "t_address"
          },
          {
            "astId": 19,
            "contract": "contracts/Social.sol:SocialMedia",
            "label": "content",
            "offset": 0,
            "slot": "1",
            "type": "t_string_storage"
          },
          {
            "astId": 21,
            "contract": "contracts/Social.sol:SocialMedia",
            "label": "timestamp",
            "offset": 0,
            "slot": "2",
            "type": "t_uint256"
          },
          {
            "astId": 23,
            "contract": "contracts/Social.sol:SocialMedia",
            "label": "likes",
            "offset": 0,
            "slot": "3",
            "type": "t_uint256"
          },
          {
            "astId": 25,
            "contract": "contracts/Social.sol:SocialMedia",
            "label": "commentsCount",
            "offset": 0,
            "slot": "4",
            "type": "t_uint256"
          }
        ],
        "numberOfBytes": "160"
      },
      "t_struct(User)10_storage": {
        "encoding": "inplace",
        "label": "struct SocialMedia.User",
        "members": [
          {
            "astId": 5,
            "contract": "contracts/Social.sol:SocialMedia",
            "label": "username",
            "offset": 0,
            "slot": "0",
            "type": "t_string_storage"
          },
          {
            "astId": 7,
            "contract": "contracts/Social.sol:SocialMedia",
            "label": "userAddress",
            "offset": 0,
            "slot": "1",
            "type": "t_address"
          },
          {
            "astId": 9,
            "contract": "contracts/Social.sol:SocialMedia",
            "label": "isRegistered",
            "offset": 20,
            "slot": "1",
            "type": "t_bool"
          }
        ],
        "numberOfBytes": "64"
      },
      "t_uint256": {
        "encoding": "inplace",
        "label": "uint256",
        "numberOfBytes": "32"
      }
    }
  }
}